:020000040800F2
:1000000068040020AD0200084714000855130008DA
:1000100045140008190300084117000800000000FB
:100020000000000000000000000000004B14000869
:100030001B03000800000000491400084D140008CC
:10004000C7020008C7020008C7020008C70200086C
:10005000C7020008C7020008C7020008C70200085C
:10006000C7020008C7020008C7020008C70200084C
:10007000C7020008C7020008C7020008C70200083C
:10008000C7020008C7020008C7020008C70200082C
:10009000C7020008C7020008C7020008C70200081C
:1000A000C7020008C7020008C7020008C70200080C
:1000B00071150008C7020008C7020008C70200083F
:1000C000C7020008C7020008C7020008C7020008EC
:1000D000C7020008C7020008C7020008C7020008DC
:1000E000C7020008C702000800000000C70200089D
:1000F000C7020008C7020008C7020008C7020008BC
:10010000C7020008C7020008C7020008C7020008AB
:10011000C7020008C7020008C7020008C70200089B
:10012000C7020008C7020008C7020008C70200088B
:10013000C7020008C7020008C7020008C70200087B
:1001400000000000000000000000000000000000AF
:10015000C7020008C7020008C7020008C70200085B
:10016000C7020008C7020008C7020008C70200084B
:10017000C7020008C7020008C7020008000000000C
:10018000C7020008C7020008C7020008C70200082B
:10019000C7020008C7020008C7020008C70200081B
:1001A000C7020008C7020008C7020008C70200080B
:1001B000C7020008C7020008C7020008C7020008FB
:1001C000C7020008C7020008C7020008C7020008EB
:1001D000C7020008C7020008C7020008C7020008DB
:1001E000C7020008C7020008C7020008C7020008CB
:1001F000C7020008C7020008C7020008C7020008BB
:10020000C7020008C7020008C7020008C7020008AA
:10021000C7020008C7020008C7020008C70200089A
:10022000C7020008C7020008C7020008000000005B
:10023000C7020008C702000800000000C70200084B
:10024000C7020008C7020008C7020008C70200086A
:10025000C7020008C7020008C7020008C70200085A
:10026000C7020008C7020008C7020008C70200084A
:10027000C7020008C7020008C7020008000000000B
:10028000C7020008C7020008C702000800000000FB
:1002900000000000C7020008DFF80CD000F02AF8C8
:1002A0000048004769170008680400200648804796
:1002B00006480047FEE7FEE7FEE7FEE7FEE7FEE74B
:1002C000FEE7FEE7FEE7FEE7FD14000899020008DE
:1002D000D2B201E000F8012B491EFBD27047002288
:1002E000F6E710B513460A4604461946FFF7F0FF35
:1002F000204610BD064C074D06E0E06840F00103C3
:1003000094E8070098471034AC42F6D3FFF7C8FFD3
:10031000C8170008E8170008FEE77047704790F814
:1003200005C00223BCF1010F15D0037101F01001CB
:1003300042F080024FF47C6302FA01FC03FA01F1FF
:1003400003681A6822EA010141EA0C0119600023DE
:10035000012143710171D8B2704700002DE9F041CD
:100360000D464179044690460220012900F085801F
:100370002071012060712868042843D1B8F1000F72
:1003800009D02068406BB0F1FF3F18DC00F0BEF9E7
:100390000228F6D30CE000F0B9F9394E0746206880
:1003A000406B304212D000F0B1F9C01B0228F6D3E6
:1003B000206940F008002061032020715DE00120E9
:1003C00000F0CEF82068A969416405E0012000F042
:1003D000C7F82068A9690164836C08F0100140F235
:1003E000FF328A4023EA0202EB698B401A4382649F
:1003F000FF22C36C8A4023EA02022B6A03FA01F14E
:100400001143C1642969206801290BD1836B08F06D
:1004100010011F228A4023EA02026B698B401A43B3
:10042000826301E008F01001C36B07228A4023EACF
:1004300002022B68D5E902763B4333438B401A43D3
:10044000C2634FF4804203688A4023EA02020260DA
:1004500040F6FE7203688A4023EA02026B688B4012
:100460001A430260C02202FA01F1026822EA010185
:1004700001600020012160712171C0B2BDE8F081EE
:100480000080002010B5044668B1207920B9002012
:100490006071204600F00AF802200121207100203E
:1004A0002061217110BD012010BD000010B586B083
:1004B000044601A81421FFF712FF20681049884262
:1004C0001CD11048816841F000518160816801F0C1
:1004D000005100910099016841F00101016001A9FA
:1004E000006800F001000090009803200290202096
:1004F000019000200390044800F042F806B010BDBF
:1005000000740040E044025800000258437902227F
:10051000012B23D00271012201F010030029427146
:1005200002FA03FC0268136843EA0C0313601368C1
:1005300008D003F47811B1F5003F0BD1516841F0B8
:10054000020106E003F03E01022903D1516841F0A7
:10055000010151600022012142710171D0B2704746
:10056000B0B5044600F0D2F805469348611C007807
:1005700018BF044400F0CAF8401BA042FAD3B0BD33
:100580002DE9F84F594A4FF00A0C4FF000094FF08F
:10059000010A4FF0000B00279042554A08BF4FF068
:1005A000090C02444FEAB223092B38BF4FEAB22CA0
:1005B0000C6834FA07F208BFBDE8F88F0AFA07F2B0
:1005C00014EA020E00F08B804C6844F01006122EE4
:1005D00011D10BF01C040F2303FA04F6464B03EA77
:1005E000570800EB08031D6AB5430E6906FA04F4C8
:1005F0002C431C624C680668032504F00303122C8C
:1006000005FA09F503FA09F326EA050643EA0603A3
:100610006FEA0506036015D80AFA04F313F0061F03
:100620001FBF83683340CD6805FA09F51FBF2B4310
:100630008360C4F30013BB401FBF456825EA020274
:100640001A434260C2688B68324003FA09F31A43C6
:10065000C260E20043D5604A0BF00C040F25A540B0
:100660000CFA04F41346126842F002021A601A6887
:10067000224B02F002021E460092009A27F003026B
:10068000D358AB43234393511A4A4FF0B046154613
:10069000D26F4C6842EA0E0314F4803F08BF22EA8E
:1006A0000E0314F4003FEB67D5F8802042EA0E03F6
:1006B00008BF22EA0E0314F4801FC5F880303268A8
:1006C00042EA0E0308BF22EA0E0314F4001F33604F
:1006D0002A6842EA0E0308BF22EA0E032B6009F1E2
:1006E00002090BF1040B013762E700BF0024025836
:1006F0000000FEA704000058FCFFFF7F080400581C
:1007000001480068000C70470010005C0548006854
:10071000704700BF2848034900780A681044086001
:10072000704700BF6400002080B5032000F086F809
:1007300000F0C0F90E49DD4B0A68C2F303229A5C4F
:1007400002F01F02D040DA4A1060096801F00F0180
:10075000595C01F01F01C84006490860002000F004
:100760000BF808B1012080BD00F028F8002080BD02
:10077000184402580C00002070B50F4E0446307823
:10078000B0B14FF47A71B1FBF0F0C9490968B1FB1F
:10079000F0F000F053FC01250F2C0AD848B94FF0B7
:1007A000FF3021460022002500F026F8746000E0AA
:1007B0000125284670BD00BF0000002081B006481A
:1007C000016841F002010160006800F00200009041
:1007D000009801B0704700BFF4440258002808DBBD
:1007E00000F01F010122400902FA01F1014A42F81A
:1007F0002010704700E100E010B5164B1B68C3F3F2
:10080000022E0EF1040CAEF103048EF00703BCF1CE
:10081000070F4FF0010C38BF0024042B28BF04231E
:100820000CFA03F3013B19400CFA04F3013BA1401D
:100830001A401143BDE8104000F084BF05494FF64F
:10084000FF030A681A4060F30A2203481043086055
:10085000704700BF0CED00E00000FA05B0B5124D86
:10086000296811F0040F04D1296801F007018142C1
:1008700016D1296821F0070108432860FFF746FFD9
:10088000044655F8080C10F4005F07D1FFF73EFF4F
:10089000001BB0F57A7FF4D9032002E0002000E0CD
:1008A0000120C0B2B0BD00BF0C4802582DE9F8438A
:1008B00088460446002800F0F2807B4B186800F060
:1008C0000F0040450BD2186820F00F0040EA0800E6
:1008D0001860186800F00F00404540F0E080206884
:1008E000AC4F10F0040F0AD02169BA6902F070020F
:1008F000914281BFBA6922F070021143B9610107C8
:100900000AD56169FA6902F07002914281BFFA6901
:1009100022F070021143F961C1060AD5A169FA6992
:1009200002F4E062914281BFFA6922F4E06211436D
:10093000F96181060AD5E1693A6A02F070029142D2
:1009400081BF3A6A22F070021143396281070AD5E9
:10095000E168BA6902F00F02914281BFBA6922F0E0
:100960000F021143B961C10737D0B869A16820F4FB
:1009700070600843B8616068032806D0022809D176
:10098000396811F4003F0DD189E0396811F0007F1A
:1009900008D184E03968012802D1C90502D47EE07B
:1009A00049077CD53969994621F007010843386128
:1009B000FFF7ACFE064641F288353869616800F001
:1009C0003800B0EBC10F06D0FFF7A0FE801BA84295
:1009D000F3D9032064E020684B4681070AD5E1681B
:1009E000BA6902F00F0291423FBFBA6922F00F02CA
:1009F0001143B961196801F00F0141450AD919681D
:100A000021F00F0141EA08011960196801F00F0196
:100A1000414544D141070AD52169BA6902F0700203
:100A200091423FBFBA6922F070021143B9610107D8
:100A30000AD56169FA6902F0700291423FBFFA6912
:100A400022F070021143F961C1060AD5A169FA6961
:100A500002F4E06291423FBFFA6922F4E06211437E
:100A6000F96180060AD5E069396A01F070018842AF
:100A70003FBF396A21F070010843386200F01AF86C
:100A8000B9690A4AC1F30321515C01F01F01C84052
:100A9000074908600020BDE8F843FFF76DBE01205C
:100AA000C0B201B0BDE8F08300200052B6170008C4
:100AB0000800002037490869C0F3C200032811D09C
:100AC000022804BF3548704750B90A68374812F009
:100AD000200F1FBF0968C1F3C101C84070477047AC
:100AE0002D487047D1F828C0886ACB6A4A6B03F05A
:100AF0000103C0F305105B42002803EAD2026FF342
:100B00005F3200EE102AB8EE400A0BD00CF0030260
:100B1000022A09D05AB90A6812F0200F0AD19FEDB3
:100B2000221A11E0002070479FED1E1A0CE09FED85
:100B30001C1A09E00A681D4BC2F3C10223FA02F233
:100B400001EE102AB8EE411A0A6B096B9FED183AB4
:100B500004EE100AB7EE005A6FF35F2202EE102A7D
:100B6000B8EE422AC1F34620B8EE444A00EE032A0A
:100B7000013081EE040A32EE051A02EE100AB8EED8
:100B8000422A20EE010A80EE020ABCEEC00A10EEF4
:100B9000100A70470044025800093D0040787D016A
:100BA0000024744A20BCBE4B0024744C0090D00337
:100BB00000000039F8B50446002800F04E81207886
:100BC000D54EC00722D12078800740F19A80316944
:100BD000B06A11F038013ED0182908BF5FEA807072
:100BE00039D0E0683168002874D021F01901084339
:100BF0003060FFF78BFD0546306810F0040F45D1DB
:100C0000FFF784FD401B0228F6D980E13169B06A04
:100C100001F03801102916D0182904BF00F0030094
:100C2000022810D06068F0B3B0F5803F07D031687B
:100C3000B0F5A02F40F0578141F48020306030683B
:100C400040F4803055E1306810F4003FBBD060685C
:100C50000028B8D101E13168E06811F0040F02D03A
:100C6000002800F0FA80316821F019010843306053
:100C7000FFF74CFD0546306810F0040F06D1FFF772
:100C800045FD411B03200229F5D941E1FFF738FD5D
:100C9000716841F2030290422DD8206921F47C3121
:100CA00041EA00302CE0306820F480303060306859
:100CB00020F480203060FFF729FD0546306810F4ED
:100CC000003F3FF480AFFFF721FD411B0320642963
:100CD000F4D91DE121F001003060FFF717FD054652
:100CE000306810F0040F0CD0FFF710FD411B0320FB
:100CF0000229F5D90CE1206921F0FE4141EA0060AA
:100D000070602078C0064ED53169B06A01F03801B4
:100D1000082919D0182904BF00F00300012813D0B6
:100D2000E169306871B340F080003060FFF7EEFC9D
:100D30000546306810F4807F0ED1FFF7E7FC411BB9
:100D400003200229F5D9E3E0306810F4807F1CBF4E
:100D5000E069802840F08180FFF7D2FC41F2030176
:100D6000884207D87068216A20F0F84040EA816024
:100D7000706018E0F068216A20F07C5040EA016061
:100D8000F06010E020F080003060FFF7BFFC054607
:100D9000306810F4807F06D0FFF7B8FC411B0320B9
:100DA0000229F5D9B4E02078000723D56169706F76
:100DB00079B140F001007067FFF7A8FC0546706F3D
:100DC00010F0020F16D1FFF7A1FC401B0228F6D944
:100DD0009DE020F001007067FFF798FC0546706FFA
:100DE00010F0020F06D0FFF791FC411B03200229EF
:100DF000F5D98DE02078800623D5A169306879B1D6
:100E000040F480503060FFF781FC0546306810F4F4
:100E1000005F16D1FFF77AFC401B0228F6D976E076
:100E200020F480503060FFF771FC0546306810F404
:100E3000005F06D0FFF76AFC411B03200229F5D9A9
:100E400066E0207840070AD4676A002F00F0DC8053
:100E5000306900F03800182825D1012058E0D6F874
:100E6000000440F48070C6F80004FFF74FFC05460C
:100E7000D6F8000410F4807F05D1FFF747FC401B33
:100E80006428F5D943E0A068002847D0012806D09F
:100E9000316F052840F0BA8041F004003067306FB0
:100EA00040F00100B8E0306820F080703060FFF75B
:100EB0002DFC0546022F0AD1306810F0007F46D085
:100EC000FFF724FC411B03200229F5D920E03068FC
:100ED00010F0007F00F09880FFF718FC411B032002
:100EE0000329F4D314E021F480303060306820F41A
:100EF00080203060FFF70AFC0546306810F4003FA0
:100F00007FF461AEFFF702FC401B6428F5D9032093
:100F1000C0B201B0F0BD00BF00440258306F20F0F5
:100F200001003067306F20F004003067FFF7EEFB00
:100F3000054641F28837306F10F0020F3FF484AF5E
:100F4000FFF7E4FB411B0320B942F4D9E0E7B06AA4
:100F500040F2F33104F130034FF4FE078843D4E943
:100F60000A12084340EA0210B0620FCB7F3100F250
:100F7000FF107F3249026FF35F2007EA024289B215
:100F8000084303F17F0110434FF0FE4202EA016182
:100F900008434FF6F8713063F06A20F00100F06208
:100FA000706B8843A16C40EAC1007063F06A216CE9
:100FB00020F00C000843F062F06A616C20F002003F
:100FC0000843F062F06A40F48030F062F06A40F466
:100FD0000030F062F06A40F48020F062F06A40F085
:100FE0000100F062306840F080703060FFF78EFBE7
:100FF0000446306810F0007F06D1FFF787FB011B25
:1010000003200229F5D983E7002081E721F00100C0
:101010003067306F20F004003067FFF777FB05463C
:1010200041F28837306F10F0020F7FF40DAFFFF7F9
:101030006DFB411B0320B942F4D969E7411E002032
:10104000B0EB116F1CBF01207047044AF0235160C0
:1010500003490B70072190601160704710E000E0B9
:1010600023ED00E0704770477047000090F83C3077
:101070000222012B24D0B0B54FF0010C80F83D20A6
:10108000104D80F83CC003685A6843F48064D3F87C
:1010900008E0AC4202BF4C6822F4700222430C68A4
:1010A000896822F0700222435A602EF080021143B8
:1010B0000022996080F83C2080F83DC0BDE8B04037
:1010C000D0B270470004014010B50446A0B194F8B6
:1010D0003D0028B9002084F83C00204600F00EF8BE
:1010E0000220211D84F83D00206800F045FA01200F
:1010F00084F83D00002010BD012010BD0068B0F153
:10110000804F18BF7047E0B509480022016841F0E0
:10111000010101600021006800F0010001900198C8
:101120001C20FFF769FB1C20BDE88C40FFF756BB75
:10113000E84402580221094B80F83D1001688A6892
:101140001A40062A1FBFB2F5803F0A6842F001022A
:101150000A60012180F83D1000207047070001005F
:101160007047000010B504460068016911F0020FD5
:101170001CBFC16811F0020F47D1016911F0040FC3
:101180001CBFC16811F0040F4CD1016911F0080FA8
:101190001CBFC16811F0080F51D1016911F0100F87
:1011A0001CBFC16811F0100F56D1016911F0010F79
:1011B0001CBFC16811F0010F5BD1016911F0800FF4
:1011C0001CBFC16811F0800F5BD1016911F4807FF1
:1011D0001CBFC16811F0800F5BD1016911F0400F95
:1011E0001CBFC16811F0400F5AD1016911F0200FE6
:1011F0001ABFC16811F0200F10BD6FF0200101610E
:101200002046BDE81040FFF72FBF6FF002010161DB
:1012100001212177806910F0030F49D02046FFF7A4
:101220009FFF4BE06FF0040101610221217780698B
:1012300010F4407F46D02046FFF792FF48E06FF061
:101240000801016104212177C06910F0030F43D028
:101250002046FFF785FF45E06FF01001016108218E
:101260002177C06910F4407F40D02046FFF778FF17
:1012700042E06FF001010161204600F045F820686E
:101280009BE76FF0800101612046FFF7ECFE2068CC
:101290009BE71B4901612046FFF7E4FE20689CE7BD
:1012A0006FF040010161204600F053F820689CE790
:1012B000204600F027F8204600F025F8002020778F
:1012C00020685AE7204600F01DF8204600F01BF881
:1012D00000202077206858E7204600F013F82046C9
:1012E00000F011F800202077206856E7204600F033
:1012F00009F8204600F007F800202077206854E71E
:10130000FFFEFFFF704770477047B0B590F83C2074
:1013100004460220012A1AD084F83D000125204607
:1013200084F83C5000F0A4F900284FF0010009D1E6
:101330002068C16821F04001C160C16821F480418A
:10134000C1600020002184F83C1084F83D50C0B2F8
:10135000B0BD7047FEE7000080B58AB001A8242127
:10136000FEF7BDFF114812490160FFF78BF808B185
:10137000FEF7D4FF0A2001211022029000200190E4
:101380000390CDE90410094801A9FEF7E7FF08B171
:10139000FEF7C4FF054810214FF43062FEF7BFFF8F
:1013A00008B1FEF7BBFF0AB080BD00BF10000020EF
:1013B0000074004082B00A48016841F08001016079
:1013C000016801F0800101910199016841F001017A
:1013D0000160006800F001000090009802B07047C2
:1013E000E044025810B588B003A81421FEF777FF37
:1013F000E7484FF08041022200240A2380E81600CB
:10140000C0E9033484610294CDE90044FFF75CFE37
:1014100008B1FEF783FF0620049403A90390DC487B
:10142000FFF773FF08B1FEF779FF002069460290CD
:1014300020200090D648FFF719FE08B1FEF76EFF96
:1014400008B010BDFEE7704770477047FFF762B9FC
:1014500010B59CB009A84C21FEF741FF01A820213E
:10146000FEF73DFF0220FFF7F9F900200090214828
:10147000016821F001010160006800F001000090A6
:101480001D48016841F440410160016801F4404198
:1014900000910099016811F4005FFBD00120202128
:1014A00000240C90022009900D91042112901394B5
:1014B00014913221CDE91510CDE917000C20CDE9AA
:1014C000190409A81B94FFF775FB3F204FF48061B6
:1014D00001900320CDE90204082004904020CDE9CA
:1014E0000500CDE9071001A80221FFF7DFF91CB0C4
:1014F00010BD00BF2C0400581848025810B51748FA
:10150000184CD0F8801041F47001C0F880101449D4
:101510000A6842F001020A6000220A610B68234057
:101520000B608A61CA610A628A62CA620A634A639C
:101530008A63CA630A644A640B6823F480230B60DD
:101540000A6609490968B2EB517F02BF07490122C7
:101550000A604FF00061016010BD00BF08ED00E0BF
:10156000004402587FEDF6EA0010005C088100514B
:101570008748FFF7F7BD00BFB0B50368344DB0F141
:10158000804F0BD0334A90421CBF334A904205D063
:10159000324A90421CBF324A904239D14A6805F51E
:1015A000884423F07003041BB4FA84F44FEA541EF9
:1015B00005F58044134305F59042041B821AB4FAE2
:1015C00084F4B2FA82F24FEA541C5209CC6823F434
:1015D000407323434C6923F08003002A43EA040349
:1015E00003608B68C3620B68836208D1BEF1000F91
:1015F00005D1A8421CBF05F58062904202D109695D
:10160000016302E0BCF1000FF9D101214161B0BDDD
:10161000A842C3D005F5884405F59042041B821A00
:10162000B4FA84F4B2FA82F24FEA541E05F580440B
:101630005209041BB4FA84F44FEA541C094CA0422A
:101640001CBF094CA042C1D0084CA042BED0C1E78B
:10165000000001400004004000080040000C004071
:1016600000040140004001400048014000440140A6
:1016700010B500681F4B204C82681340D1E900C2AE
:101680001440403A234343EA0C0383604FEA321389
:10169000032B2DD8DFE803F002151B21BCF1050F49
:1016A00004BF012010BD026A036A23F00103036234
:1016B0008369096923F0F00343EA01118161026241
:1016C00016E08B680A69194600F018F810E08B687C
:1016D0000A69194600F023F80AE0D1E902230969F2
:1016E0001A4342EA0121826822F47F421143816059
:1016F000002010BD88FFCEFFF8FFFEFFD0F820C00D
:10170000036A23F001030362836923F0F00343EAD1
:10171000021282612CF00A02114301627047036ACF
:1017200023F010030362836923F4704343EA023217
:10173000036A826123F0A00242EA0111016270474C
:10174000FEE7000010B5074C054A00F00F03B0F1AA
:10175000FF3F2344C8BF83180801187010BD00BFA5
:1017600000E400E014ED00E080B5FEF7DDFFFFF7D8
:101770006FFEFFF71FFEFFF7EFFDFFF733FE044894
:10178000FFF7D8FC03481021FEF7C0FEFEE700BFBC
:10179000240000201000002002E008C8121F08C129
:1017A000002AFAD170477047002001E001C1121FE2
:1017B000002AFBD17047000000000102030401026F
:1017C0000304060708090000E817000800000020CD
:1017D0001000000098170008F817000810000020FB
:1017E00058040000A81700080100000010000000C5
:0817F0000090D0030090D0032B
:040000050800029954
:00000001FF
